:020000041000EA
:1000000000B5324B212058609868022188439860DF
:10001000D860186158612E4B002199600221596106
:100020000121F02299502B49196001219960352056
:1000300000F044F80222904214D00621196600F024
:1000400034F8196E01211966002018661A6600F04E
:100050002CF8196E196E196E052000F02FF8012189
:100060000842F9D1002199601B49196000215960AB
:100070001A491B48016001219960EB211966A021F2
:10008000196600F012F800219960164914480160C1
:100090000121996001BC002800D000471248134993
:1000A000086003C880F30888084703B5996A0420EC
:1000B0000142FBD001200142F8D103BD02B5186610
:1000C0001866FFF7F2FF186E186E02BD00000240BE
:1000D000000000180000070000035F00212200005C
:1000E000F4000018222000A00001001008ED00E03C
:1000F00000000000000000000000000074B24E7A12
:1001000000200420F7010010C3010010C5010010F9
:10011000C1010010C1010010C1010010C101001097
:10012000C1010010C1010010C1010010C701001081
:10013000C1010010C1010010C9010010CB01001065
:10014000CD010010CD010010CD010010CD01001037
:10015000CD010010CD010010CD010010CD01001027
:10016000CD010010CD010010CD010010CD01001017
:10017000CD010010CD010010CD010010CD01001007
:10018000CD010010CD010010CD010010CD010010F7
:10019000CD010010CD010010CD010010CD010010E7
:1001A000CD010010CD010010CD010010CD010010D7
:1001B000CD010010CD010010CD010010CD010010C7
:1001C00000BE00BE00BE00BE00BE00BE00F04BF888
:1001D000103800BEF2EB8871C87E0010E47E00107B
:1001E0003402001090A31AE700202149086006C8D5
:1001F00081F3088810471F48006800282FD10DA4FC
:100200000ECC002902D000F012F8F9E71A491B4A77
:10021000002000E001C19142FCD1194988471949E9
:1002200088471949884700BEFDE701C901C29A42C3
:10023000FBD37047E47E0010C00000209402002031
:10024000B88000100000042000000420B8800010D6
:1002500000100420001004200000000070470B482C
:1002600003F062FE0047EFF30580C0B27047000064
:1002700008ED00E0000000D0980200209006002069
:100280002525001041040010F525001057560000E8
:1002900006005250ABB36053747E001006005250FB
:1002A000861C0302847E0010060052505422A29D38
:1002B000947E001005005250DE65F468B88000108E
:1002C000F8B5C04610B5064C2378002B07D1054B76
:1002D000002B02D0044800E000BF0123237010BDB2
:1002E000980300200000000000550010044B10B5DA
:1002F000002B03D00349044800E000BF10BDC046F6
:10030000000000009C03002000550010F0B5C64618
:1003100000B586B080461422002101A804F006FE34
:10032000D024240680252D026562A561122001F0EB
:100330008AFDA5622820002101F06EFD002600271D
:10034000012519E0D0231B065B68DB0B01251D404E
:10035000FF2C24D0032E0ED9F3070CD4FA0801A9E0
:10036000900043585B0043502E2C03D901210B43CE
:1003700001A9435001370136542E10D80024D02350
:100380001B065A68D20B01231340AB42DAD1013469
:100390000120002101F040FDFF2CF0D1D2E7272FF2
:1003A0000BD90599019D02982B18039C1B19049EDB
:1003B0009B19FF221340994206D01D4804F0A4FE69
:1003C00006B080BCB846F0BD2B02C01804F0CAFCD1
:1003D000184904F08CFC43461860174904F0BCFC33
:1003E000002804D0280004F0BDFC43461860200219
:1003F000FE23DB011840301804F0B4FC0D4904F072
:1004000076FC434658600D4904F0A6FC002804D051
:10041000200004F0A7FC434658602306D0D543468D
:100420005B68802212069446634442465360C7E7E5
:1004300000550010000020410000C8420000FA42B0
:1004400070B588B0264B059301235B4204930633B5
:100450000393013B0293033B0193002300933C224F
:100460000221204800F0C2FA1F4B18601F4801F01B
:10047000EAFC06A8FFF74AFF079804F095FC040081
:100480000D0002000B001A4804F06EFE194E220007
:100490002B001949300003F01BFD22002B001748E8
:1004A00004F062FE164801F0CEFC0E4C0122002141
:1004B000200000F0A3FF7F21200000F08DFB01232E
:1004C0000393002202920193009600230021200052
:1004D00000F094FBFA20C00001F0B5FCC9E7C0466B
:1004E00040420F00400400206C040020B80B0000C4
:1004F0000C550010740600201855001020550010EF
:1005000030750000D0231B065B68C34001201840F3
:10051000704701238340D0221206536293617047D3
:1005200001238340D022120653629361704710B5B5
:10053000040000F0DFFF0123A340D02212069362E3
:1005400010BD10B5040000F0D5FF0123A340D02258
:100550001206936210BDF8B5CE46474680B50C0032
:1005600003789946437898468768002515E0484601
:10057000FFF7D6FF4046FFF7E4FFFE1738003100D3
:1005800001F04AFC4046FFF7C4FF6400E4B23800C3
:10059000310001F041FC0135EDB2072D06D863B200
:1005A000002BE4DA4846FFF7C2FFE3E74846FFF7CF
:1005B000BEFF4046FFF7C5FFFD173800290001F0D8
:1005C0002BFC4846FFF79EFF04004046FFF7A1FFC3
:1005D0003800290001F020FC4846FFF7A1FF6042E7
:1005E0006041C0BCB946B046F8BDF8B5060014007D
:1005F0001700012000E02900002F0AD0012808D1AF
:100600004D1C09783000FFF7A6FF0128F3D1013F08
:10061000F1E7012801D00020F8BDE01BFCE770B530
:1006200005000C0016000078FFF77AFFA86800218B
:1006300001F0F2FB6878FFF76CFF6100C9B2002E91
:1006400001D00131C9B22800FFF785FF70BD10B598
:1006500004000078FFF764FFA068002101F0DCFBD4
:100660006078FFF76EFFA068002101F0D5FB2078CD
:10067000FFF75DFFA068002101F0CEFB10BDF8B5CB
:1006800006000F000078FFF752FF0025002404E069
:100690007078FFF73EFF0134E4B2072C11D8B06840
:1006A000002101F0B9FB7078FFF74BFF6D00EDB250
:1006B0003078FFF727FF0028EAD001231D43EDB271
:1006C000E6E7002F15D03078FFF731FF7078FFF79D
:1006D00038FFB068002101F09FFB7078FFF719FF29
:1006E000B068002101F098FB3078FFF719FF28006F
:1006F000F8BD3078FFF714FFE8E7F8B507000C0005
:1007000009E0661C69426941C9B23800FFF7B7FFCA
:1007100020702A003400551E002AF2D1F8BD0000D6
:1007200070B504000D0000280AD08378002B08D192
:1007300000789F281BD9234B9D4228D90023A36012
:1007400070BD214804F040FE2078032100F0A0FE97
:100750006078032100F09CFE20780022012100F047
:10076000AFFE60780022012100F0AAFEE8E700F069
:10077000C1FE607800F0BEFE22780123190091408E
:10078000D0221206916261788B409362D3E70F4BBF
:100790009D4202D90123A360D2E70D4B9D4202D9AD
:1007A0000223A360CCE70B4B9D4202D90A23A3602E
:1007B000C6E72900084803F00FFC0004000CA06005
:1007C000BEE7C0463F420F0070020020FF340C001D
:1007D0007F1A06009F86010040420F0030B585B0A9
:1007E00004008578002D0BD10022FFF718FF0028A8
:1007F00000D001252000FFF72AFF280005B030BDFA
:100800000023009301330F226A44034804F012FED0
:10081000C543ED0FF1E7C04670020020F0B583B08C
:10082000040017001E008378002B0BD10022FFF775
:10083000F6FE0500012811D02000FFF708FF280070
:1008400003B0F0BD012300933300084804F0E6FD37
:10085000002801DB3500F2E70025F0E7320039001F
:100860002000FFF7C2FE0500E6E7C0467002002048
:10087000F0B585B006000F001D000F236B441A7001
:100880008378002B0BD10022FFF7C9FE040001285A
:100890001AD03000FFF7DBFE200005B0F0BD0123C9
:1008A00000930F226A44154804F0B8FD002802DACC
:1008B000C043C40FF0E7002300930A9B2A003900CD
:1008C0000E4804F0B7FDF3E701220F216944300020
:1008D000FFF78BFE04000128DBD13000FFF7B7FEE5
:1008E000012239003000FFF79AFE04000128D0D120
:1008F0000A9A29003000FFF700FFCAE770020020C3
:1009000010B50C001300017810302200FFF786FFAD
:1009100010BD10B582B001AB00241C7059709A70E4
:1009200003221900FFF7ECFF02B010BD10B582B032
:100930000C00D1010919C160002B25D0C378052B0B
:100940000BD0042B0FD0062B20D0072B0CD11C343E
:100950008378002B08D1033206E020348378002B03
:1009600002D1043200E0023401A900230B70503B95
:100970001A434A705F3323408B70241110231C43A9
:10098000CC700422FFF7BCFF02B010BD8378002BAF
:1009900001D02034E8E70232E6E770B5A2B00500E6
:1009A0000E00140001AA40211170002B12D16868BA
:1009B00000280DD0EB689C4660442200310004F012
:1009C000BBFAEB689C466444EC60A405A40DEC60A3
:1009D00022B070BD220031006B46581D04F0ACFA05
:1009E000621C01A92800FFF78BFFE0E7F0B5C646BF
:1009F00000B584B004000D0017001E000023436002
:100A0000C170867043700B9B83740C9B03740D9BA9
:100A100043746A4B0E9A1A6001235B42684A136062
:100A2000684A13601133984680440F994046FFF797
:100A300077FE7B1C012B01D9FF2F32D13C21404690
:100A4000FFF7CCFE3C214046FFF7C8FE00281ED031
:100A50003C2323700B276F4400233B702178013324
:100A600000933B0000224046FFF702FF3A780F2335
:100A700013403B70072B23D00F2B21D0082B36D0EF
:100A8000032B38D0062B38D001277F421EE03D21B2
:100A90004046FFF7A3FE002800D18CE03D232370E1
:100AA000D8E7FFB2277039004046FFF797FE3900BC
:100AB0004046FFF793FE0028CCD101277F426AE031
:100AC0000123E37073425E41F6B2042723783D2B85
:100AD00015D0022D15D0062D13D0012D2ED0072DA7
:100AE00032D0162238492000FFF70AFF0EE0043BFF
:100AF000E3700227EAE70027E8E70027E6E7013787
:100B0000E7E7182231492000FFF7FAFE0A9B002B85
:100B100020D1002E29D18023A372403BE372062D01
:100B200035D0022D3CD0012D3DD0052D3ED0072DD6
:100B300031D14823A372203BE3722CE016222449D2
:100B40002000FFF7DDFEE1E71A2222492000FFF72F
:100B5000D7FEDBE700236A461373A73353730222E1
:100B600003A92000FFF7CCFED3E703AE00233370C8
:100B7000A0337370022231002000FFF7C1FEC023B2
:100B80007370022231002000FFF7BAFEC3E7203362
:100B9000A372503BE372380004B080BCB846F0BD8D
:100BA0002023E372F7E78023E372F4E74023A37284
:100BB000203BE372EFE701277F42ECE73C04002093
:100BC0003804002034040020645500104C550010F7
:100BD000345500107C55001010B50A008121FFF734
:100BE00098FE10BD002305E00278D2430270013068
:100BF0000133DBB28B42F7D370470000F0B5DE461D
:100C000057464E464546E0B58FB004000D00511CD6
:100C100003D0591C01D002724372217AA37A9942FF
:100C200000D3C3E3627AE37ADB089A4200D3C0E3DD
:100C30001B9B2000FFF77AFE199B012B19D0199BF3
:100C4000042B78D0199B022B00D130E1199B032B88
:100C500000D19BE2199B002B00D0BDE306212800A8
:100C600003F08EF9199F2A000D00189B9846160074
:100C700059E307272F4000262A003D00189B98467D
:100C8000170014E0082104A8FFF7ACFF30E00023B0
:100C90002372627A0132D2B262721B9B0021200061
:100CA000FFF744FE002500E00025083F0136227AC8
:100CB000A37A9A4200D37FE343469A5D002A00D18B
:100CC0007CE3617AE37ADB08994232D2072FECDCCD
:100CD000203AD100891A002304AA1370C84A89183F
:100CE000072204AB581C04F027F91A9B002BC9D12A
:100CF0000822531B9A46237A52469918A27A9142A7
:100D000001DDD31A9A46290004AB9C4661441B9B23
:100D100052462000FFF741FE227A5244D2B222729C
:100D2000A37A073B9A42BFDB6378002BAFD1002543
:100D3000BBE7002054E30B332B4098460023AA4620
:100D40001D00189B99461B9B9B4646E0102104A85A
:100D5000FFF748FF6CE0102104A8FFF743FF81E094
:100D6000217A02325B462000FFF7E0FD310020319E
:100D7000102204A804F0E0F81A9B002B06D15B4671
:100D80003A0041462000FFF708FE75E0102104A854
:100D9000FFF728FFF3E7217A03325B462000FFF7D5
:100DA000C5FD31003031102204A804F0C5F81A9BAB
:100DB000002B06D15B463A0041462000FFF7EDFDCF
:100DC0005DE0102104A8FFF70DFFF3E7002398462C
:100DD00010235B429C46E2440135217AA07A81428D
:100DE00000D3EDE2627AE37ADB08033B9A4200DB50
:100DF000E8E24B465E5D002E57D053460F2BE7DCF2
:100E0000203EF6B2B6017F4BF61810274346FF1A74
:100E1000CB19834200DD471A5B462000FFF786FDB1
:100E20001022310004A804F087F81A9B002B8DD102
:100E300004AB9C46E0445B463A0041462000FFF785
:100E4000ACFD217A627A01325B462000FFF76EFD2D
:100E500031001031102204A804F06EF81A9B002B08
:100E600000D078E75B463A0041462000FFF795FD49
:100E7000627A052A00D873E7627A042A8BD9237A2A
:100E8000DF19FFB22772A37A0F3B9F429EDB637884
:100E9000002B07D000232372637A0433637200238C
:100EA000984695E70023984692E7002098E20C21A7
:100EB000280003F065F8029100230093AB4633E16C
:100EC000062104A8FFF78EFE54E19200D2B201334E
:100ED000032B0CDC08001841C00700D51643181D71
:100EE0000C0004412000C007EFD51543EDE74C4648
:100EF00004AB1E5563465E701D735D730137052F8D
:100F00000CDCFC1C6400A44604AB9946CC44D95DBF
:100F10000322002500260023A146D9E70027C44666
:100F2000A4E0420001320124A146944062B27C78E0
:100F3000144364B2A0467C70BC78224354B203943C
:100F4000BC70441C6400A2464C465246944062B2B7
:100F5000444614437C70039C1443BC705B00DBB2BA
:100F60004900C9B20130062800DD7DE02A001A40A0
:100F70001D4205D01E4203D10D4201D10E4207D1C0
:100F8000002A41D11E423FD00D423DD00E423BD1FE
:100F90000228C6DD03281ED0021F520001320124A0
:100FA000A146944062B27C7B144364B2A0467C7339
:100FB000BC7B224354B20394BC73C41E6400A2469B
:100FC0004C465246944062B2444614437C73039CA0
:100FD0001443BC73C2E77A7890468022524244465A
:100FE00014437C70BC782243BA70012290467A7B0D
:100FF000444622437A73BA7B2243BA73AEE7C046B3
:10100000986D001098550010002AA7D11E42A5D057
:101010000D42A3D00E42A1D1032813DC42000132BD
:101020009046012292461400424694407A78144336
:101030007C70421C5200544694402200BC782243EB
:10104000BA708BE7021F520001320124A04694407F
:101050007A7B22437A73C21E520044469440220097
:10106000BC7B2243BA7379E7019C2700042F0CDC78
:1010700004ABDD5D7C1C1E5D03377F009846474452
:1010800002210123002001946DE764460C26029B97
:10109000F61A217A8A19A37A9A4200DD5E1A627AD8
:1010A0001B9B2000FFF742FC029DA91D04AB9C4640
:1010B00061441B9B32002000FFF76FFC217A627AAB
:1010C00001321B9B2000FFF731FC2900123104ABD9
:1010D0009C4661441B9B32002000FFF75EFC237A94
:1010E0009E19F6B22672A37A0B3B9E4213DB6378FD
:1010F000002B02D1002302930FE000232372627AB7
:101100000232D2B262721B9B00212000FFF70EFC5C
:101110000023029301E0002302930C235B429C46D0
:10112000E344009B01330093227AA37A9A4200D3CE
:101130004AE1627AE37ADB08013B9A4200DB45E14F
:10114000189B009A9B5C002B1ED05A460B2AE4DCAD
:10115000203BD9B28B005918A64BC918002304AA0A
:101160001370062204AB581C03F0E6FE1A9B002BFA
:1011700000D0A5E61822002104AB981D03F0D6FE8E
:1011800000231F00A046BAE6002029E10C332B40C3
:101190009B4600239A46D946AB467FE0082104A827
:1011A000FFF720FDA0E09200D2B20133032B0CDC4C
:1011B00008001841C00700D51643181D0C00044153
:1011C0002000C007EFD51543EDE7009C404604AB77
:1011D0001E5563465E701D745D740137072F0DDC6C
:1011E0003C1D6400A44604AB9846C444D95D032268
:1011F00000250026002300948046D7E70400102332
:101200004A469B1A9846017ACA18837A9A4201DDA7
:101210005B1A9846627A1B9B2000FFF787FB4946C2
:10122000083104AB9C4661441B9B42462000FFF7FB
:10123000B4FB217A627A01321B9B2000FFF776FB18
:101240004946183104AB9C4661441B9B4246200032
:10125000FFF7A3FB237A4344DBB22372A27A0F3A4F
:10126000934213DB6378002B02D1002399460FE0F1
:1012700000232372627A0232D2B262721B9B002177
:101280002000FFF753FB0023994601E00023994615
:101290005B46103B9B46534601339A46227AA37A1B
:1012A0009A4200D394E0627AE37ADB08013B9A42E7
:1012B00000DB8FE0189B52469B5C002B1CD05A46EB
:1012C0000F2AE5DC203BDBB2D900C91A4A4BC9180A
:1012D000002304AA1370072204AB581C03F02CFE51
:1012E0001A9B002B00D059E72022002106A803F00A
:1012F0001DFE0027200071E7002071E0062104A8F0
:10130000FFF770FC2FE000232372627A0132D2B221
:1013100062721B9B00212000FFF708FB199D00E073
:10132000199D063E0137227AA37A9A4257D2627AF1
:10133000E37ADB089A425AD24346DB5D002B33D076
:10134000052EEEDC203BD9B2002304AA13708B00DB
:101350005918284BC918052204AB581C03F0ECFDA2
:101360001A9B002BCAD10622531B9A46237A524657
:101370009918A27A914201DDD31A9A46290004AB4A
:101380009C4661441B9B52462000FFF706FB227AD5
:101390005244D2B22272A37A053B9A42C0DB6378F0
:1013A000002BB0D1199DBCE7199819E001204042EB
:1013B00016E00120404213E0002011E000200FE081
:1013C00000200DE000200BE0002009E0002007E0F5
:1013D000002005E0002003E00120404200E01998D1
:1013E0000FB0F0BCBB46B246A946A046F0BD199866
:1013F000F6E7C04638700010986D0010F0B5D6467C
:101400004F464646C0B584B005008A461600C37AEA
:10141000DB089946877A3F091022684603F086FD6B
:1014200000236B722B72984610E03300102269463D
:101430002800FFF7B2FA0134E4B2BC42F5D3EB78EE
:10144000072B0DD043460133DBB29846C8450ED278
:101450003300424600212800FFF768FA0024ECE739
:101460003300082269462800FFF797FAEAE7686820
:10147000002806D0AB7AEA7A5A43D210514603F0DC
:1014800055FD04B0E0BCBA46B146A846F0BD000028
:1014900010B58300084A944663441C6840226240A9
:1014A000C02414408022520113431C60C000034B2F
:1014B0009C466044416010BD04C0014000400140B2
:1014C00080000B4B9C46604400290DD00823002A65
:1014D0000CD004221343026853400C221340802294
:1014E00052011043036070470023F0E70022F1E748
:1014F00004C0014010B501238340D022120693623C
:1015000093610521FFF7C4FF10BD0000EFF31080C9
:1015100072B6034B1B68002BFBD0BFF35F8F704785
:101520002C0100D0BFF35F8F024B00221A6080F3C2
:10153000108870472C0100D0F8B505000C0016008B
:10154000FFF7E4FFE308EF18EA5C072121401300EE
:10155000CB40DB0707D401238B40DBB213433B7046
:10156000FFF7E0FFF8BD2100300001F065F8000052
:10157000002307E0054A9A189200BFF35F8F00210D
:10158000116001331F2BF5D97047C046400000346D
:10159000054A1078431CDBB21370172B02D91300D5
:1015A00010221A707047C046D0010020034B1B6800
:1015B00002201840431E9841C0B2704700C0064048
:1015C00040BF00200021704770B505000C000800E6
:1015D00000F08AFC200000F05FFD0849200000F0C8
:1015E000AFFCFFF7D5FF064B9C4660448000686067
:1015F0002C75A400034BE55070BDC046D9180010EF
:10160000400000345C04002070B5002921D003683C
:101610001B7B99421DD8164B9C4661440901836887
:101620009C4661440C684968002A18D003681B7BFB
:101630009A4214D883680E488446624412019A186C
:101640001568536801208B4201D80ED00020C0B22B
:1016500070BD084B084A3921084800F0CFFF054B00
:10166000054A3921054800F0C9FFA542EFD8EDE74A
:10167000FFFFFF0F60720010547400102C720010F6
:1016800010B500291ED0037B99421BD84B005B1874
:10169000033B0468A4466344002919D0002A1DD0E6
:1016A000914221D0002A25D0047BA24222D804688E
:1016B00050008018033820188170197800291FD134
:1016C0001A7010BD104B114A6921114800F096FFA5
:1016D000104B114A70310E4800F090FF0F4B0E4A2C
:1016E00071210B4800F08AFF0D4B0B4A722108480C
:1016F00000F084FF044B054A6921054800F07EFF95
:1017000041701A70DDE7C04684720010C07400108A
:10171000A0720010E87200109C740010F4720010A7
:101720000073001070B506000D001400002914D0DD
:10173000002A14D0806873689847002806D02200D9
:1017400029003000FFF79CFF280007E02A00210055
:101750003000FFF795FF200000E0100070BD08008A
:10176000FCE70000F0B583B00500009201930AABDE
:101770001C780BAB1F78002C26D003685A7B944250
:1017800007D10123002B19D1002C3BD1200003B03D
:10179000F0BD002C0CD01A7B944209D81A68630063
:1017A0001B19033BD3189B78002BEBD00123E9E7EF
:1017B0003E4B3F4A69213F4800F020FF3E4B3F4AE5
:1017C00062213F4800F01AFF03689C7B002CDBD0AD
:1017D00012D01A7B94420FD862001219033A19688A
:1017E0008C46624451789973002900D1D973002343
:1017F000937053701370C7E72C4B2D4A69212D4805
:1018000000F0FCFE002C3AD02B681B7B9C4236D8A3
:101810002C4BE3181B01AA6894466344009A1A6093
:10182000019A5A60089A9A60099ADA602E68002C28
:101830002BD030D0337B9C422DD863001B19033B47
:1018400032689446634400229A705A701A70717B11
:1018500022003000FFF766FF7073844200D095E7E6
:10186000287D009A019B00F0B3FB061E01D0002FDB
:1018700017D00C9B002B00D188E71E7086E7124B17
:10188000124A39210E4800F0B9FE114B114AA62127
:10189000084800F0B3FE054B054A6921054800F0F1
:1018A000ADFE2868210000F0C1FDE2E7847200105F
:1018B000C0740010A072001018730010CC740010D7
:1018C0002C720010FFFFFF0F6072001054740010A4
:1018D00028720010B0740010F0B5DE4657464E4630
:1018E0004546E0B58DB00B90002399468200AD4B84
:1018F000D55850E0AC4BAD4A3921AD4800F07EFEE2
:10190000002901D100286ED10021504600F084FD4D
:10191000B84219D12268636808920993A3689A466D
:10192000E3689B465346002B14D0002F18D02B6839
:101930001B7B9F4214D87B1EEA68D35C99461B022E
:1019400018432861002019E09A4B9B4A8921984846
:1019500000F054FE994B984A8D21954800F04EFEB8
:10196000914B974A3E21924800F048FE00239B4647
:1019700000230024089309949A4600206B68BFF363
:101980005F8F00221A6088F310885346002B37D1EE
:10199000002800D1FFE000F0B3FA069007916A68D2
:1019A000EFF3108872B61368002BFCD0BFF35F8F83
:1019B0002B689A465F7B002FD8D09BD01B7B9F4221
:1019C00098D8804BFC182401AB689C46644422687C
:1019D00063680892099310001900069A079B801A01
:1019E000994100298CDD089A099B0B9800F0F0FAC8
:1019F00000239B4600230024089309949A46BDE7E0
:101A00004B461E023E4359463000D0470690079190
:101A10006A68EFF3108472B6136859424B41D9B229
:101A2000002BF9D1BFF35F8F079B002B21DB079BB6
:101A3000002B48DD2B69002B4BD0B3426AD100F05C
:101A40005FFA02000B0010001900069A079B12189B
:101A50004B41994266D863D0002104910131039132
:101A6000029759460191514600912800FFF77AFEEE
:101A700047E02B69002BDAD0B34217D1089A099BB3
:101A800006980799121A8B4108980999994216D815
:101A900012D000210491013103910297594601911E
:101AA000514600912800FFF75DFE2AE0464B424A6E
:101AB0009C213F4800F0A2FD08999142E9D90122FA
:101AC0005242D317E5E7069A079B002B01D1002A63
:101AD000B0D12B68002F3FD05A7B974226D10121ED
:101AE000002939D1DA7B002A3CD1DF73002F4CD09A
:101AF0002B681B7B9F4248D8E9687B1ECA5C013279
:101B0000CA5400232B616A68BFF35F8F136084F3AC
:101B1000108840E72C4B284A9F21254800F06EFD95
:101B2000904299D901225242D31795E7002F0DD048
:101B30001A7B97420AD87A00D219033A1868844669
:101B400062449278002ACBD00121C9E71F4B204A7A
:101B50006921204800F052FD1F4B204AF7211D4803
:101B600000F04CFD002A0AD0197B8A4207D85100A8
:101B70008A18033A19688C4662445770B5E7134BCC
:101B8000134A6921134800F039FD074B0C4A3E21E6
:101B9000074800F033FD0DB0F0BCBB46B246A94685
:101BA000A046F0BD5C040020607200105474001068
:101BB0002C7200104073001038740010587300101D
:101BC00078740010FFFFFF0F647300108472001020
:101BD000C0740010A0720010A07300108C7400106C
:101BE00010B5084B5B68002B00D010BD054C2300DE
:101BF000054A1021206800F02FFB03212000FFF789
:101C0000E3FCF2E7D40100200916001010B5064BE2
:101C10005B68002B01D0044810BD044B044A5921D5
:101C2000044800F0EBFCC046D4010020C47300104F
:101C3000607400102C720010F0B5DE4657464E4618
:101C40004546E0B58BB0804616001F00149B9A46AF
:101C5000159B994616AB1B789B461F2302AA9446F8
:101C6000634400221A7001E016001F0043465A68C0
:101C7000EFF3108472B6136859424B41D9B2079101
:101C8000002BF8D1BFF35F8F1F3302AA9446634441
:101C900004930023039302934B460193534600930E
:101CA00032003B004046FFF75DFD031E2ED10200CF
:101CB00041464968BFF35F8F00250D6084F31088AB
:101CC000002B48D01F2302A98C4663441B78002BAD
:101CD0002ED112021043002B3FD05B46002B3CD08C
:101CE0004946D04704000D0003000B433CD00029B7
:101CF00020DA32003B00121BAB419F4202D8B3D125
:101D00009642B1D901267642F717AFE7002809D0ED
:101D100042461268127B904204D8421E4146C9686E
:101D20008A5CC5E7114B124A3E21124800F066FC5E
:101D30000798D0E700F0E4F802000B00A4185D411A
:101D400026002F00A94202D890D1A0428ED90126A8
:101D50007642F7178AE7012040420BB0F0BCBB4641
:101D6000B246A946A046F0BD0798F6E7607200109B
:101D7000787400102C720010F0B585B006000F00CA
:101D8000FEF771FA00281AD106246442E517A41957
:101D90007D41BD4202D803D1B44201D900240025BF
:101DA00000F0AEF822002B00121A8B41002B0BDC46
:101DB00008D03000390000F0AFF805B0F0BD13488E
:101DC00000F03AFC002AF4D0FFF720FF0023029332
:101DD00001930F4B009322002B00FFF72DFF0028EB
:101DE00006DAE6E7002300E00023002BE1D120BF64
:101DF000084B5B6A9D42F7D80649896AA14203D223
:101E00009D42EFD00123F0E70123EEE7E8730010D5
:101E1000C11500100040054070B504000D0000F031
:101E20006FF802000B0020002900801859418B42F6
:101E300005D802D0FFF7A0FF70BD8242FAD9012079
:101E40004042C117F6E710B5FA22920000230021A4
:101E500002F026FFFFF7E0FF10BD000070B5EFF3C2
:101E600005833F2018401038EFF3108C72B6194BE1
:101E70001B68002BFBD0BFF35F8F0123190081404B
:101E8000154A5163154A12781400C440234214D0F5
:101E9000114B5C6A8300124D5B599C4206D3830050
:101EA000104C1B598A430D490A7007E00A4A031D6A
:101EB0009B0099589950002300E00023BFF35F8FE7
:101EC000044A002111608CF31088002B00D0984741
:101ED00070BDC046280100D0004005408E0600209D
:101EE0007C060020B403002010B50100024A03481C
:101EF000FFF722FB10BDC046E47400108C060020E2
:101F0000044B5B6A034A906A1900536A9942F9D1FB
:101F10007047C04600400540084B5B6A01E0074B34
:101F20005B6A8B42FBD301E0044B5B6A8B4203D1BB
:101F3000024B9B6A8342F7D37047C046004005407E
:101F400070B504000D00EFF3108672B61B4B1B68D2
:101F5000002BFBD0BFF35F8F002D1CD0200000F0C2
:101F600085FD174B83420BD01900200000F086FD41
:101F70000121200000F072FD0123A340114A1360EB
:101F8000A400114BE550BFF35F8F0C4B00221A6089
:101F900086F3108870BDA2000B4B0021D1500122A6
:101FA000A2400A490B7893430B700549200000F0CA
:101FB0008FFD0021200000F051FDE4E7280100D052
:101FC0005D1E001038600540B40300208E0600201E
:101FD000F8B5CE46474680B5040016001D00FFF751
:101FE0008FFF8D4202D844D1864242D9EFF3108947
:101FF00072B6224B1B68002BFBD0BFF35F8F01270B
:10200000A7401F4B5F63FAB290461E490A784046CC
:1020100002430A70221D9200D650A4001A4AA5500D
:102020001B6A3B4212D1164B1B6C3B4208D000206E
:10203000BFF35F8F114B00221A6089F3108819E0FB
:10204000124B134AB221134800F0D8FAFFF758FF99
:102050008D420CD801D1864209D8094B1F625F63BB
:10206000084A137841468B4313700120E0E70020B3
:10207000DEE70120C0BCB946B046F8BD280100D05B
:10208000004005408E0600207C06002008750010E8
:10209000687500102C750010EFF3108C72B60B4BA6
:1020A0001B68002BFBD0BFF35F8F01238340084ADE
:1020B000136208490A789A430A70BFF35F8F034B93
:1020C00000221A608CF310887047C046280100D0A7
:1020D000004005408E060020024B9C46614489006A
:1020E000016070474000003410B50400FFF750FA5B
:1020F00001002000FFF7F0FFFF232371BFF35F8F84
:1021000010BD000010B500291ED0037B99421BD8DA
:102110004B005B18033B0468A4466344002919D0B4
:10212000002A1DD0914221D0002A25D0047BA24252
:1021300022D804685000801803382018817019785C
:1021400000291FD11A7010BD104B114A6921114886
:1021500000F054FA104B114A70310E4800F04EFA5C
:102160000F4B0E4A71210B4800F048FA0D4B0B4AF9
:102170007221084800F042FA044B054A69210548DB
:1021800000F03CFA41701A70DDE7C046847200101E
:10219000F0760010A0720010E8720010DC760010DB
:1021A000F47200100073001070B506000D001400EA
:1021B000002914D0002A14D080687368984700283A
:1021C00006D0220029003000FFF79CFF280007E01E
:1021D0002A0021003000FFF795FF200000E01000EA
:1021E00070BD0800FCE7000010B500234373013305
:1021F0008373037BC3730123027B9A4214D9002BA0
:102200000CD0027B934209D85A00D218033A0168D5
:102210008C4662440133DBB25370EDE70B4B0C4A42
:1022200069210C4800F0EAF9002A09D0924207D847
:10223000016853009A18033A8A180023537010BD9E
:10224000024B034A6921034800F0D8F98472001058
:10225000F0760010A072001010B501734260836028
:10226000FFF7C2FF10BD000070B50400081E00D1CA
:1022700070BD002934D0237B994231D84B005B18C4
:10228000033B2268944663445A78002AF0D02DD04C
:10229000237B9A422AD853009B18033B21688C4623
:1022A00063445D7800215970002825D0237B984233
:1022B00022D843001B18033B21688C46634400214D
:1022C000597001002000FFF76FFF06002900200071
:1022D000FFF7CAFF020031002000FFF765FFC7E7E4
:1022E000084B094A6921094800F088F9054B064A5C
:1022F0006921064800F082F9024B034A692103482C
:1023000000F07CF984720010F0760010A0720010CA
:1023100070B505000C001600002928D02DD0037BD5
:1023200099422AD84B005B18033B026894466344E9
:102330005A78002A27D19A78002A2AD11978FFF7EB
:1023400093FF0300002E03D0EA7B002A27D1EC7311
:10235000002B37D1002C49D02B7B9C4246D82B68D0
:1023600061000C19033C1C190023637070BD224BE3
:10237000224A3821224800F041F9224B224A6921A1
:10238000224800F03BF9224B1C4A3A211C4800F03D
:1023900035F9204B194A3B21194800F02FF9002A42
:1023A0000AD0297B8A4207D851008A18033A296843
:1023B0008C4662445470CAE7124B134A6921134891
:1023C00000F01CF9002B0BD02A7B934208D8430065
:1023D0001B18033B2A689446634400229A70B9E7AD
:1023E000084B094A6921094800F008F9054B064ADB
:1023F0006921064800F002F900760010C876001046
:102400000876001084720010F0760010A0720010A0
:102410003C7600106476001070B504000A00457B1D
:102420002900FFF775FF6073280070BD70B50400C8
:10243000002967D0437B8B420ED0002911D0037B4B
:1024400099420ED84B005B18033B0268D018837882
:10245000002B0CD1002056E00121FFF7DDFF012009
:1024600051E0294B294A6921294800F0C7F8002B7F
:1024700020D0227B93421DD85A00D318033B2268F8
:10248000D2182568EB5C8B421AD0002B1BD0227B24
:10249000934218D85A00D318033B2268D2185378B5
:1024A0008B4216D0002BF0D11A4B1B4A67211B48D8
:1024B00000F0A4F8144B154A6921154800F09EF865
:1024C0004378137007E0104B104A6921104800F060
:1024D00095F84378537000238370437001222000E5
:1024E000FFF716FF0200617B814205D02000FFF755
:1024F0005BFE6073012006E0094B074A6D21074827
:1025000000F07CF8002070BD84720010F07600109E
:10251000A072001088760010B076001008760010C7
:102520009076001070B5234B234A1A60234B244A3F
:102530001A60244B9A68224B9343FAD1224C01E053
:1025400008CC9847214B9C42FAD300F001F91B4B71
:102550001F4A1A601B4B9B68DB43DB01FAD11D4B02
:1025600040229A675A671A67DA661B4C03E020001C
:10257000FFF7BAFD0834194B9C42F8D3184CA168F8
:10258000184DC022280002F0D7FCA560FDF76BFEB5
:10259000002800D000BEFEF7EBFF00F0FBFBFFF7CA
:1025A0001FFB114C01E008CC9847104B9C42FAD31A
:1025B00070BDC04600E00040BFCDFFFF00F000400E
:1025C000FE7F3C0000C000408002002090020020FE
:1025D000FFFFFF0100F00140780200208002002090
:1025E00000ED00E000000020900200209402002096
:1025F00000BEFDE710B5FFF7FBFF000010B582B08D
:102600000C001900002A0CD0084B002A0BD00192B4
:10261000009323000200064802F0A6FD0120FFF708
:10262000E7FF044BF1E7034AF1E7C046FC760010F0
:102630000C770010087700100FB400B583B008487D
:1026400002F062FD049B002B07D005A90191180040
:1026500002F068FD034802F057FD0120FFF7C8FFB4
:102660003C7700104C770010F8B5D646474680B549
:1026700006000D001700089A934243D3190E180262
:10268000089A002301F0EEFC80467400A419A4000F
:102690002A4B9C4664446368834200D26060331FC7
:1026A000DBB29A46012B33D9C0239B0123438022FE
:1026B00012011A60B300224A9958002905D05069C6
:1026C00001F08AFC01300138FDD17F0122685740BA
:1026D000E022174080235B0123431F605246012AFA
:1026E00021D980239B012343802212011A60434693
:1026F0006360B600124B089AF2500120C0BCBA4683
:10270000B046F8BD0F4B104A2E211048FFF776FF58
:10271000012DC9D1C0239B01234303221A60A36862
:10272000DB07FCD5D1E72168694003220A401A6023
:10273000A2680123AB401342FAD0D2E700800040E8
:10274000C403002050770010A477001064770010B5
:1027500030B583B00C2000F093F8FEF727FF002877
:102760000DD0002304E09900334A344888500133E7
:10277000092BF8D9304B324A5A6203B030BD314B85
:1027800000229A6700F084F82F4B01221A602D4B2B
:102790005B6C012BFBD12D4B03221A60294B9B6BE9
:1027A000012BFBD1C0239B01294A1360294A1360E6
:1027B000294B9A68C0239B019343F9D102240094CA
:1027C0000633264A0121264800F076F800940523B6
:1027D000244A0121244800F06FF8244B0093002282
:1027E00002210420FFF740FF214D00952B0000221D
:1027F00001210520FFF738FF104C00942300002230
:1028000000210720FFF730FF009423000022002161
:102810000820FFF729FF0A4B009323000022002124
:102820000920FFF721FF00952B0000220021062040
:10283000FFF71AFFA1E7C046C4030020006CDC02CA
:102840001BB70000008000403CB0004030B00040AA
:1028500000E0004000F0004000C00040002F685938
:102860000080024000389C1C00C00240001BB700E2
:10287000405973078000014BC0587047C4030020C3
:1028800080239B000343014AD362704700800540C8
:10289000064BAA2212011A602F22DA60044B054A65
:1028A0001A60024B5B68002BFBDA70470040024065
:1028B0000060024000B0FA00F0B5CE4600B504005A
:1028C000894616001D0001235B424360002383609C
:1028D0000C2001F081FB07004B46236043011B1ACB
:1028E0009901C91AC90009188901300001F074FB67
:1028F0000200103A98235B009A4220D86B1E062BE8
:1029000023D8069B013B062B1FD8069B9D4222D352
:102910003209BA4225D3A060221DC0239B01134374
:1029200021221A602268002AFCDA2D04069A160376
:102930003543E56008221A6080BCB946F0BD0C4BF7
:102940000C4A1A210C48FFF759FE0C4B094A1D216D
:102950000948FFF753FE0A4B064A23210648FFF7B2
:102960004DFE084B034A27210348FFF747FEC046A8
:10297000B477001088780010D07700100878001025
:10298000547800106C780010074B9B681030800062
:102990001950BFF35F8FBFF35F8F044B00211960A5
:1029A00082F310887047C04600ED00E0240100D09B
:1029B00010B5091A04394808090B05D14005400D26
:1029C000044B184380B210BD034B044A8C210448C9
:1029D000FFF714FE00E0FFFF94780010987A0010D3
:1029E000A478001010B5091A04394C08090B08D155
:1029F0004905490D064A11430180064B2343438094
:102A000010BD054B054A94210548FFF7F7FDC04668
:102A100000F0FFFF00F8FFFF947800106C7A0010C0
:102A2000A478001001238340034A10681840431E15
:102A30009841C0B27047C04600E100E0002904D0D0
:102A4000034B1860034B18607047034B1860FBE79B
:102A500080E200E000E100E080E100E010B5012349
:102A600083401800FFF7EAFF10BD0000024B9B688F
:102A700010308000C058704700ED00E070B50400D1
:102A80000D00EFF3108672B60C4B1B68002BFBD0C9
:102A9000BFF35F8F2000FFF7E9FF094B984201D099
:102AA000A84205D1320029002000FFF76DFF70BD5C
:102AB000044B054A70210548FFF7A0FD240100D012
:102AC000CD010010DC780010B47A0010A47800105A
:102AD000F0B5CE46474680B583B006000D00EFF353
:102AE000108872B6574B1B68002BFBD0BFF35F8F6B
:102AF000554B9A6834001034A300D758534B9F426B
:102B000007D0AF4200D19BE00197514BFB1A2F2B0E
:102B100009D9424639003000FFF736FF03B0C0BC88
:102B2000B946B046F0BD3000FFF77CFF814600217A
:102B30003000FFF793FFBFF35F8FFDF794FB002892
:102B400001D0844219D10123019C9C4323004049B8
:102B50005B1A5B4148495943090D49B20022A368F9
:102B6000AB4212D00622A256002A0DDB53009B185E
:102B70009B002200364CE418F1E72021354B364A01
:102B8000FF313648FFF73AFD2200AB4251D106250E
:102B90006557002D39DB6B005B199A002C4B9B1895
:102BA0009A68A260DA79E27106229A56A2719B793C
:102BB0005BB2002B10DABD200002A0806B005B1915
:102BC0009B00234AD318264A1178997115704946FB
:102BD0003000FFF743FF9CE7201D6B005B199B0053
:102BE0001B4A9B181A1D9B88D90A1C2907D15B0513
:102BF0005B15023359005118FFF7DAFEDDE7194B78
:102C0000194A9A211548FFF7F9FC00280CD1002A2F
:102C100008D0FF239371154B9380114B1A78A27142
:102C20001970D4E7094FF8E7201D1149FFF7DAFEC4
:102C3000CDE7AA210F4B084A49000848FFF7DEFC00
:102C4000024F66E7240100D000ED00E0CD01001046
:102C5000FC010020F0790010847A0010A4780010A4
:102C60008D060020D8790010A47A001000BDFFFF67
:102C700036020020147A0010AAAA000010B503231F
:102C800004009C43064A9446644422681840C000ED
:102C9000FC3383409A43130081400B43236010BDF3
:102CA00000E400E070B50400012606432D4BF31A42
:102CB0002F2B28D8FDF7D7FA00282BD0EFF3108C54
:102CC00072B6294B1B68002BFBD0BFF35F8F23002C
:102CD000244D5B1B5B412E4D5D432D0D6DB2234B8F
:102CE0009B6880001B58B3421BD00022032A32D8B5
:102CF00053009B189B001B49CB189B795BB2AB42DE
:102D00001FD00132F2E77221194B1A4AFF311A48DB
:102D1000FFF774FCBA21194B164A49001648FFF711
:102D20006DFC124B9B68164A1A50164B1A78A2710A
:102D30001D70BFF35F8F0C4B00221A608CF310885C
:102D400070BD08005300991889004118FF268E7144
:102D50000D4A8A80E9E786210C4B064AFF31064876
:102D6000FFF74CFCFC010020240100D000ED00E046
:102D70001C7A0010507A0010A4780010447A0010D9
:102D8000CD0100108D06002000BDFFFF88760010E9
:102D9000AAAA000010B5002404E080212000FFF75B
:102DA0006DFF01341F2CF8D910BD9A4200D288540F
:102DB0007047704710B5002802D00B6849689847E3
:102DC00010BD0100002007E083001B185B00501CB1
:102DD00008601078C01830380A681378303BDBB2CE
:102DE000092BF1D97047F0B5DE4657464E464546A9
:102DF000E0B583B093461F000C9B9A460D9C0E9B3A
:102E000099460F9B9B0703D0B8460F00060022E0AF
:102E10000192A34688464E46B9460700B44207D2FF
:102E2000551C4B4641462020B84701342A00F5E79F
:102E30003D004F465C46019B9B46B1464646B84620
:102E400037002E0007E0013C551C5346185D4346F1
:102E50003900B0472A00002CF5D135003E00474626
:102E60000F9B9B0707D4100003B0F0BCBB46B246D3
:102E7000A946A046F0BDB0464E46B9462F005D4675
:102E8000531BB342EFD2541C4B4641462020B84757
:102E90002200F5E7F0B5CE46474680B585B09446AA
:102EA00098460C9D0D9C0EAB1B789946109A119B71
:102EB000129EB7071CD4002B0CD0F7070AD54F463B
:102EC000002F02D10C37374204D0013B02E03027FB
:102ED0002F550134944201D21F2CF8D9F70707D59A
:102EE0009C4205D21F2C03D830272F550134F5E71B
:102EF000F70615D5770505D4002C03D0944224D0CD
:102F00009C4222D00F9A102A2BD00F9A102A30D030
:102F10000F9A022A35D01F2C02D830222A550134AC
:102F20001F2C05D84A46002A31D02D222A550134BB
:102F3000039602930194009543466246FFF753FFC0
:102F400005B0C0BCB946B046F0BD621E012C06D02B
:102F50000F9F102F01D01400D4E7023CD2E71400D9
:102F6000D0E7B206D1D41F2CCFD878222A5501340D
:102F7000D1E7B206CCD51F2CCAD858222A55013425
:102F8000C9E71F2CC7D860322A550134C3E772073E
:102F900003D52B222A550134CAE73207C8D520228F
:102FA0002A550134C4E7F0B5DE4657464E4645463D
:102FB000E0B593B081468A46089209931CAB10CBCA
:102FC0001B789B461E9D219B9846002C03D1102305
:102FD00042469A4390468023DB0046461E404246C6
:102FE0001A4212D0002C22D000260EE03033D9B283
:102FF000771C0AAB99552900200000F0EDFFAC4288
:1030000016D31F2F14D83E0004002900200000F022
:10301000E3FFCBB2092BE9D94246920605D54121FF
:10302000C918C9B20A39C9B2E2E76121F8E7270035
:1030300043460693209B05931F9B049303955B4691
:10304000029301970AAB0093099B089A51464846A0
:10305000FFF720FF13B0F0BCBB46B246A946A0461E
:10306000F0BDF0B5DE4657464E464546E0B595B054
:10307000089009910A920B931E9E1F9C20AB1B780F
:103080009B46229B9946239D269B9A4633002343C9
:1030900003D1103352469A4392468023DB005746B1
:1030A0001F4052461A4219D0330023432DD0002727
:1030B00014E03033DAB27B1C98460CABDA554A4642
:1030C0002B003000210000F0CDFFA5421FD819D001
:1030D00043461F2B1BD8474606000C004A462B00D0
:1030E0003000210000F0BEFFD3B2092BE1D95246D7
:1030F000920605D54122D218D2B20A3AD2B2DAE704
:103100006122F8E7B145E3D901E000239846534630
:103110000693259B0593249B04934B4603935B46A0
:103120000293434601930CAB00930B9B0A9A0999B7
:103130000898FFF7AFFE15B0F0BCBB46B246A946F3
:10314000A046F0BDF0B5DE4657464E464546E0B5D2
:1031500091B083468A460C9298461A9C08941B9D0F
:10316000099522002B002000290001F0F2F9002827
:1031700000D0E5E001225242D74B2000290001F0A7
:10318000E3F9002800D0DBE001225242D34B2000BB
:10319000290001F0C3F9002800D0D1E0002200236B
:1031A000089D2800099E310001F0B8F9002800D0E0
:1031B000DDE008980999069007918023DB001E9AAC
:1031C0001A400D921E9A1A4201D106231C930698AA
:1031D000079904000D000A000600024300D1D1E067
:1031E000080D4005400DBE4CA44660440A03120B76
:1031F000BC4B13431F0001F0BFF9BB4ABB4B01F0AE
:103200004BF9BB4ABB4B01F035F904000D0000221D
:10321000B94B3000390001F024F9B84AB84B01F03D
:103220003BF902000B002000290001F023F901F016
:10323000BBF9814601F0A0F904000D00B14AB24B80
:1032400001F02AF90022B14B01F014F901F0ACF9B8
:103250000600AF4AAF4B2000290001F01DF9040021
:103260000D00300001F088F9AB4AAC4B01F014F9C5
:1032700002000B002000290001F0F3F804000D000B
:1032800002000B0001F008F90A900B91A44BF3180F
:1032900000261F0522002B002000290001F0EAF87B
:1032A0000E900F9122002B0000208021C90501F013
:1032B000D8F804000D0000229A4B0A980B9901F0EF
:1032C000E2F80022984B01F0D5F802000B000A98B2
:1032D0000B9901F0D8F80022944B01F0CBF80200D2
:1032E0000B000A980B9901F0CEF802000B002000A9
:1032F000290001F0BFF802000B000E980F9901F0B1
:10330000C2F80022774B01F0B5F832003B0001F023
:10331000C3F806000F0004000D00069A079B01F099
:1033200013F9002830D001235B429C46E14400227F
:103330007D4B3000390001F0A6F804000D0023E0B9
:103340001E9B04931D9B03931C9B0293089A099B4D
:103350000092019343460C9A5146584600F0FCF8FF
:1033600011B0F0BCBB46B246A946A046F0BD002352
:10337000002406930794069580231B069C4666440A
:1033800007961AE7002399464B466333C62B1ED88F
:1033900004261E9B1B0526D52B0023430FD0644A11
:1033A000644B0698079901F0C7F8002879D00022ED
:1033B000614B0698079901F0B1F8002871D01C9B69
:1033C0004B4506DD4A46981A431E1C9303E005262A
:1033D000DFE700231C938023DB001E9A1A431E9212
:1033E0000026002399461D9B9E4264D29F1B022308
:1033F0001E9A1A400A921E9A134202D0002E00D042
:1034000000274B46002B07D022002B000698079977
:1034100001F039F8069007910022002308980999D5
:1034200001F07CF8002848D1444B1E9A13400493C5
:1034300003971C9B0293069B079C009301944346B1
:103440000C9A5146584600F087F8002E00D187E7C5
:103450001E9B9B063DD54525441C43460200514614
:103460002800D8474B46DA179B185340052205928F
:10347000013E0496002203920A3202924A46D00F7D
:10348000019000934346220051465846FFF78BFDBA
:103490000A9B002B00D163E702005F460C9E1D9D36
:1034A00054E01C9B002B9ED00D9B002B9BD01C9BA3
:1034B000013B1C9397E7002799E7069C079D220094
:1034C000290080200006844661440B000692079381
:1034D000AAE76525C0E7C046FFFFEF7FFFFFEFFFCC
:1034E00001FCFFFF0000F03FFB799F501344D33FE6
:1034F000B3C8608B288AC63F0000F83F61436F6302
:10350000A787D23F71A379094F930A400000E03F9B
:103510001655B5BBB16B0240EF39FAFE422EE63FBD
:10352000FF03000000002C40000024400000184071
:103530002D431CEBE2361A3F80842E41FFF7FFFF3C
:10354000541C434651462020B8472200931BAB42EF
:10355000F6D3100004E7C046F0B5DE4657464E46A7
:103560004546E0B595B00690079193469946209F51
:103570001E9A1F9B1000190000F0EBFF002831D1AC
:1035800001225242BF4B1E981F9900F0C7FF00282E
:1035900037D101225242BC4B1E981F9900F0D4FF34
:1035A00000283DD10022B94B1E981F9900F0CCFF96
:1035B000002850D10022B64B1E981F9900F0AEFF94
:1035C000002848D1002200231E981F9900F0A6FF72
:1035D000002850D100239846229B5B0500D4B6E01A
:1035E000002458E0229B0393219B02930323019321
:1035F000A84B00934B465A4607990698FFF7F3FBF2
:103600000EE1229B0393219B029304230193A24B7F
:1036100000934B465A4607990698FFF7E4FBFFE0F4
:103620000423229A1A4022990B4210D09B4B002A65
:103630000FD00422229903912199029101920093C3
:103640004B465A4607990698FFF7CDFBE8E0944BA6
:10365000EDE70322EEE7229B0493219B039302975D
:103660001E9B1F9C009301944B465A46079906984F
:10367000FFF768FDD4E01E9A1F9B0020002100F098
:10368000F0FE1E901F9101239846A5E70CAB302257
:103690001A55013F01341F2C01D8092FF6D81E9866
:1036A0001F9900F081FF050000F066FF02000B008B
:1036B0001E981F9900F0D5FEFA007A4B9B181A68E5
:1036C0005B680A920B9300F0E7FE0890099100F006
:1036D0008FFF060000F04CFF02000B0008980999CC
:1036E00000F0BFFE0890099100226F4B00F02CFF04
:1036F00000282ED00136300000F03AFF02000B0007
:103700000A980B9900F010FF002801D0013500261F
:10371000002F2CD1280000F02FFF02000B001E9874
:103720001F9900F09EFE06000F0000225E4B00F085
:10373000F5FE002846D100225B4B3000390000F036
:1037400003FF00283ED1EB073CD501353AE00627C0
:1037500046E70022544B0898099900F0DFFE002844
:10376000D6D1002E01D0F307D2D50136D0E7AA4634
:103770001F2C11D8013F0A21300000F02DFC651CE0
:1037800030310CAB19550A21300000F025FC092E10
:103790000ED906002C00EBE755461F2C0CD87B1EDB
:1037A000002F09D00CAA302111551F000134F4E775
:1037B0002B0055461C00F0E71F2C03D80CAB2E2223
:1037C0001A5501341F2C10D80A21280000F0D8FB0C
:1037D000661C30310CAB19550A21280000F0D0FBD3
:1037E000051E01D03400EDE734000323229A134074
:1037F000012B1CD01F2C06D84346002B32D00CAB1B
:103800002D221A550134229B0393219B029301948C
:103810000CAB00934B465A4607990698FFF7E3FA1C
:1038200015B0F0BCBB46B246A946A046F0BD219BF0
:10383000002B13D04346002B02D10C3313420FD080
:10384000219B013B2193190003E00CAB30221A5558
:1038500001348C42CED21F2CF7D9CBE72199F8E75F
:103860002199F6E7229B5B0704D50CAB2B221A5556
:103870000134C8E7229B1B07C5D50CAB20221A5583
:103880000134C0E7FFFFEFFFFFFFEF7F65CDCD41C4
:1038900065CDCDC1DC7A0010E07A0010D47A00103A
:1038A000D07A0010C87C00100000E03FF0B5DE4682
:1038B00057464E464546E0B593B082468B46904605
:1038C0001193002900D1EBE200275546119B18788F
:1038D000002800D1E7E2252809D07C1C43463A00A5
:1038E0005946A847119B013311932700EEE7013396
:1038F00011930024119A11780B00203BD8B21028A4
:1039000003D88300D048C3589F460B00303BDBB23E
:10391000092B2CD92A292FD000230A93119B1A781E
:103920002E2A39D000239A46119A1378683BD9B2CF
:10393000122976D88B00C549CB589F4601231C43DA
:1039400001321192D6E702231C4301321192D1E7D2
:1039500004231C4301321192CCE708231C4301329B
:103960001192C7E710231C4301321192C2E711A83C
:10397000FFF727FA0A90D1E71C9B1A1D1C921868C2
:10398000002804DB0A90119B01331193C6E7022340
:103990001C4343420A93F6E78022D20014435A1C88
:1039A00011925A781300303BDBB2092B04D92A2A32
:1039B00007D000239A46B7E711A8FFF702FA82461C
:1039C000B2E71C9B1A1D1C921868002804DB824673
:1039D000119B01331193A7E70020F8E780235B00D8
:1039E0002343511C119152786C2A01D01C0018E01D
:1039F000C0239B001C430131119112E0802323431B
:103A0000511C11915278682A01D01C0009E0C02392
:103A10001C430131119104E080235B001C430132FF
:103A20001192119B18780300253BDAB2532A00D972
:103A30002CE29300864AD3589F4680239B001C4368
:103A400001321192EDE780235B001C430132119299
:103A5000E7E7782809D0582838D06F2838D062286E
:103A600038D010239C430A2600E01026582833D073
:103A7000692803D0642801D00C229443630501D542
:103A80000122944369282AD0642828D0A30500D5B0
:103A90009FE0E30500D5B8E0630600D4CAE01C9AB5
:103AA000111D1C911168FF220A4005940A9B049382
:103AB00053460393029600230193009243463A0033
:103AC00059462800FFF76FFA070027E01026CDE7D8
:103AD0000826CBE70226C9E720221443C8E7A3053E
:103AE00020D4E30550D4630666D51C9A111D1C91A1
:103AF0001168FF220A40D317D118594005940A9B38
:103B00000493534603930296D20F019200914346C9
:103B10003A0059462800FFF746FA0700119B013387
:103B20001193D3E61C9BDA1D07218A43110008314B
:103B30001C91116853689C46DB170C930D930C9AEB
:103B40000D9B100048400E90624653400F930E9814
:103B50000F990C9A0D9B801A99410E900F91089421
:103B60000A9B0793534606930496002305936346E6
:103B7000DA0F02920090019143463A00594628001C
:103B8000FFF76FFA0700C9E71C9A111D1C91126814
:103B9000D317D118594005940A9B049353460393B5
:103BA0000296D20F0192009143463A0059462800EE
:103BB000FFF7F9F90700B1E7230605D51C9A111D97
:103BC0001C910023D25E96E71C9A111D1C9112686D
:103BD00091E71C9BDA1D07218A43110008311C91D3
:103BE00008940A9B07935346069304960023059373
:103BF0000293136854680093019443463A0059466F
:103C00002800FFF72EFA070088E71C9A111D1C9167
:103C100005940A9B04935346039302960023019351
:103C20001368009343463A0059462800FFF7BBF952
:103C3000070073E723060DD51C9A111D1C9112680D
:103C40001204120C31E7C046E87A00102C7B0010F9
:103C5000787B00101C9A111D1C91126825E74628DC
:103C60001AD01C9B0733072293431A0008321C9278
:103C700004940A9A0392524602925C681B6800936D
:103C8000019443463A0059462800FFF765FC0700B7
:103C9000119B0133119319E620231C43E1E76728A8
:103CA00001D0472802D180231B011C43452801D0A5
:103CB000472801D120231C431C9B07330722934331
:103CC0001A0008321C9204940A9A039252460292F5
:103CD0005C681B680093019443463A0059462800EB
:103CE000FFF730FA0700119B01331193EEE5022331
:103CF0001A002240924623421FD001241C9B1A1D09
:103D00001C927A1C9146187843463A005946A847B7
:103D10005346002B16D1119B013311934F46D5E525
:103D2000561C434659462020B847230032005C1CED
:103D30009D42F5D83D001700E0E701233A002F002F
:103D40000A9DF4E74A46A9460A9D06E0571C4346E9
:103D500059462020C84734003A00661CA542F5D8D1
:103D60004D469146D7E71C9B1A1D1C921B6899462D
:103D70005346002B00D1013B4E4601E001361300B3
:103D80003278002A02D05A1E002BF7D14B46F21A85
:103D900010928023DB0026001E401C4203D05245B7
:103DA00001D95346109302231A0022400B9223425A
:103DB00005D03A0037004C46A946554620E03A0067
:103DC000109B5F46B3462E0006E0551C4346390063
:103DD0002020B04723002A005C1C0A999942F4D89D
:103DE00035005E46BB46109437004C46A946554602
:103DF00006E01D000134561C43465946C8473200B0
:103E00002078002804D0002FF4D06B1E002DF0D1B4
:103E100017004D460B9B002B03D1119B01331193CF
:103E200054E50A9F109B06E0561C43465946202045
:103E3000A847230032005C1C9F42F5D81700ECE72E
:103E400021231C431C9B1A1D1C921B680093059484
:103E500008230493534603931023029300230193F2
:103E600043463A0059462800FFF79DF80700119B8A
:103E7000013311932AE57C1C43463A00594625201C
:103E8000A847119B0133119327001FE57C1C434673
:103E90003A005946A847119B01331193270015E5B5
:103EA0000A4B9A4610E5AA46474502D343465A1E96
:103EB00000E03A00434659460020D047380013B08E
:103EC000F0BCBB46B246A946A046F0BDB32D0010DB
:103ED0000EB410B585B0010007AC08CC03940122E4
:103EE000009452420348FFF7E1FC05B010BC08BC47
:103EF00003B01847AB2D001000B585B002900391B8
:103F00000121009313004A4202A90248FFF7CEFCA8
:103F100005B000BDB52D001001480421014B184724
:103F200050020020493F001010B5010018231B88E3
:103F300014221088984710BD10B5010018231B8863
:103F400016221088984710BDF0B5C64600B5070088
:103F50000E0000250123984600E00135B5420AD243
:103F6000AC003C192068FFF7DFFF20600028F4D187
:103F700000239846F1E7404680BCB846F0BD0000FB
:103F8000144A936F9B0815D29066D166002905D01C
:103F9000FFE7FFE7FFE7516F106F704704B580211F
:103FA0000906C2175140002800D0C84301F090FA1A
:103FB000002104BD936F5B08FDD3F0B5946ED56E00
:103FC000576F166FFFF7E0FF9466D5665767166761
:103FD000F0BD0000000000D0134A936F9B0813D27D
:103FE00010665166002905D0FFE7FFE7FFE7516F34
:103FF000106F704704B5002801D00020C04301F0C5
:1040000067FA002104BDC046936F5B08FDD3F0B58D
:10401000946ED56E576F166FFFF7E2FF9466D56604
:1040200057671667F0BD0000000000D094464E4A66
:10403000926F9208624601D230E0C046F0B54A4E17
:10404000B56F6D08FCD3346E756E776F366F00F008
:1040500025F89446444A14665566576716676246C3
:10406000F0BDC0469446404A926F9208624601D223
:1040700058E0C046F0B53C4EB56F6D08FCD3346EC9
:10408000756E776F366F00F04DF89446364A1466B9
:104090005566576716676246F0BDC046002B24DBA5
:1040A00011D000293EDA00B5C943404200D10131A8
:1040B00000F038F8C943404200D10131DB4352429D
:1040C00000D1013300BD002AEBD1002801D1002925
:1040D00005D00020C90FC90701D1C043410800B570
:1040E00001F0EEF90022002300BD00B500290ADB33
:1040F000DB43524200D1013300F014F8C94340427F
:1041000000D1013100BDC943404200D10131DB4340
:10411000524200D1013300F005F8DB43524200D196
:10412000013300BD002923D1002B18D1002A0CD067
:10413000BC460D4F38667A6600210023FFE7FFE793
:10414000FFE77A6F386F67467047002801D007484D
:10415000010000B501F0B4F90022002300BD020007
:104160000B00002000217047000000D0FFFFFFFF80
:10417000002B00D0BDE0130C26D1002AE7D080B47C
:10418000104F39667A66FFE7FFE730B4040C7B6FA7
:10419000396F1B0423433B66FFE7FFE7FFE7C04699
:1041A00084B27B6F3D6F1B0423433B66FFE7FFE751
:1041B000C04600232C042D0C7A6F386F001969411A
:1041C000B0BC7047000000D0F0B594460025140E36
:1041D00001D112020835140F01D112010435940FD8
:1041E00001D192000235D40F01D152000135D40B18
:1041F0000134254F7C66254C3C660E0C93B2FFE7DC
:10420000FFE7FFE73C6F6643360C7703BE46734318
:10421000DF0B5B04C01AB941130C7343DB18C91AD6
:10422000CE086643360CB64493B273431F0F1B018E
:10423000C01AB941130C73431F0B1B05C01AB941B7
:10424000860D8F023E436643360C092D24DB520A4D
:104250007243801A7703460A6643360C16235B1BAB
:10426000DE40DF40BF1964466643821B704604355A
:1042700006330100D940A840C01900D30131A24241
:1042800006D20023F0BD0000000000D0FFFFFFFFBA
:10429000121B0130F3D3F1E709277F1BFE40644670
:1042A000A2B27243801A00D20139220C7243130C5D
:1042B0001204821A99410B0070460435133701002D
:1042C000F940A840801900D30131002B02D1A2424D
:1042D0000AD2F0BD013000D30131121BFAD2013BEA
:1042E000F8D1A24200D2F0BD013000D30131121B3F
:1042F000F7E7F0B51C0C00D080E00CB400251C0AD8
:1043000004D11B02160E3343120208351C0B04D1D4
:104310001B01160F3343120104359C0B04D19B0083
:10432000960F334392000235DC0B02D192185B41A9
:1043300001351C00971864410134464F7C66464C99
:104340003C660E0CFFE7FFE7FFE7C0463C6F6643A5
:10435000360C7703BE4697B27743C01B00D20139B3
:10436000C01B00D201399FB27743C91BC91B170C70
:1043700077437E04FF0B801BB941CE086643360CA1
:104380000C2D33DBB644120B1F053A431B0B97B2BF
:104390007743C01B00D201399FB27743C91B170C6A
:1043A00077433E043F0C801BB941860D8F023E438C
:1043B000664329277F1BFE400C3D7746AF40BF195F
:1043C00030BCA2B2ABB272437343801A9941220C43
:1043D0007243130C1204801A994102000B0001373A
:1043E000001BA941F9D2781E0021F0BD0C277F1BCC
:1043F000FE4077467F0BAF40FF19E0E700245D1CCD
:1044000007D0144F7D663966FFE7FFE7FFE7FFE758
:104410003C6F95B29EB265436643401BB141150C9B
:104420001E0C6543664336042F0C3E432D04401B8F
:10443000B141994204D202000B0020000021F0BDDE
:1044400001D19042F7D3801A994101349942F2D3B5
:10445000F6E70000000000D0FFFFFFFF48404140AA
:10446000484018B4114B5B68FC46019308BD04DF5B
:10447000FB46001018B40D4B1B68FC46019308BDA9
:1044800000DF0547001018B4084BDB68FC460193B9
:1044900008BD0CDFBD49001018B4044B9B68FC46F6
:1044A000019308BD08DF614800100000700400207F
:1044B000FFB550404240504059404B40594000E009
:1044C000FFB5154F4C00640D03D0BC4204D10C0362
:1044D00014D80020090D09055C00640D03D0BC420E
:1044E00004D11C030AD800221B0D1B0501264B40DA
:1044F00009D44B4003D58B4200D18242FFBD994283
:10450000FCD19042FFBD0B43DB1803431343F5D0AE
:10451000C9434918FFBD0000FF07000000B5FFF7C1
:10452000CFFF804100BDC04600B5FFF7C9FF01D9EC
:10453000002000BD012000BD00B5FFF7B9FF01D983
:10454000002000BD012000BD00B5FFF7B1FF804194
:1045500000BD012040054A00121804D85A00121864
:1045600001D80020704701207047002070470000EC
:104570000021002805D17047C1174840401AFAD0E1
:10458000C90713B5064B1B6898470CBC441CA240D6
:104590001005120B0349091B09051943114310BDEE
:1045A000700500201F04000010B54C00620D802330
:1045B000D218DB00D21A5B057E2A10DD9E3A13DA90
:1045C000CC170903490819435242D1406400013411
:1045D0001532202A05DAD0400843604310BD002080
:1045E00010BD0846604310BDC80FC018013810BD8B
:1045F00018B4044B5B6AFC46019308BD24DFE94B09
:10460000001000007004002070B513231C78012CEA
:104610000FD0012C0FDC022C02DC1D4A1D4B9A64CA
:1046200070BD99001A481B4A885001331F2BF8D9D6
:10463000EFE70023FAE71848FFF77EFC050017486C
:10464000FFF77AFC023803789B007F2B19DD80226C
:104650002900104800F070FC022CDCD1104B1A88A5
:10466000B5231B029A4209D10E4B1A880E4B9A426F
:1046700004D10E4B1A880E4B9A42CCD00020FDF785
:10468000DBFF0C4B0C4A30210C48FDF7B7FFC0464E
:10469000C14600107004002053440000534600003F
:1046A00054380000D8380000494600009C3800000B
:1046B00059460000187D0010BC7D0010787D001068
:1046C00007B56046002800D100BE01880A0A023002
:1046D000DF2AFAD1C9B2820804D3028840880004D4
:1046E000104300E00068024A5050039007BD0000EC
:1046F000700400200FB403BC0CBCF0B50124E40727
:10470000634000E0F0B50C0DCF0F661E3605891B27
:10471000640503D3C943404200D30131640D03D083
:10472000661CF60A07D0E41B00207F00791C89076D
:104730008912803C24031D0DDF0F6E1E36059B1B66
:104740006D0503D3DB43524200D301336D0D03D01B
:104750006E1CF60A07D0ED1B00227F007B1C9B0716
:104760009B12803D2D032F1B661B58D4A446202E80
:1047700046DA20371400BC401D00BD40F2403341F2
:104780002A4380185941CB0F05D0C943C0430022AA
:1047900064425041514162464D0D28D10D0D07D163
:1047A00000281FD0241940414941013A0D0DF9D08C
:1047B000640006D3013000D30131002C01D1400840
:1047C0004000013A0BD4941CE40A04D112051144B0
:1047D000DB071944F0BDD907204B194300E0D90786
:1047E0000020F0BD0029DDD1002CDBD1F0BD01326D
:1047F000C6074008CD0728434908002EE1D0D9E775
:104800003C2E29DA203E40371400BC4000D0012461
:10481000F24014431A00BB401C43D317ACE7AC462C
:10482000202F08DA20360400B4400D00B540F840CF
:1048300039412843A5E73C2F0CDA203F40360400DD
:10484000B44000D00124F84004430800B1400C43B8
:10485000C117EAE710001900002494E70000F07F78
:10486000F0B50C0D661E3605891BE60A6405640D5D
:1048700002D0651CED0A04D0002001210905803C0E
:104880002403A4461C0D671E3F05DB1BE70A6405D5
:10489000640D02D0651CED0A04D0002201231B0523
:1048A000803C24037740644497B484B296B2744346
:1048B000070C7E43150C6F4380B26843361802D351
:1048C000012000043F183004350C00197D41844656
:1048D00088B29AB250430C0C62431F0C7C438EB2D8
:1048E0007E43921902D301263604A4191604170C2C
:1048F0003618674101BC81B29AB25143040C62433D
:104900001B0C5C4380B25843121802D301200004F0
:1049100024181004130C401863412D185E41002028
:10492000474106BC88B293B258430C0C6343120C47
:10493000544389B251435B1802D30121090464181E
:1049400019041A0C091862416D185641002047419C
:1049500018BCF902720D1143F0026A0D1043ED020A
:104960000A0D03D16D1940414941013B124E9B1B79
:104970007600B3420ED26D0007D30130002671419C
:104980006646354301D1400840001B05C918E407BD
:104990002144F0BD0BDA013306D1013004D10131DD
:1049A0004F0D01D04908F2E7E1070020F0BD0136C4
:1049B00031050020EBE70000FF030000F0B51C0DFF
:1049C000671E3F05DB1BE70A6405640D02D0661C09
:1049D000F60A04D0002201231B05803C2403D025C5
:1049E0002D060026F6432E661E096E66CE0FF619BA
:1049F000B44649004F0D02D07E1CF60A03D00020B9
:104A00000021403F3F033E1BB600B444013F7F05F9
:104A1000C91B49082E6F013676089C02950D254367
:104A20007543ED137543AD1301356D10F603761B19
:104A30000CB4CC02450D2C43A2B2B3B25A43270C9E
:104A40007B43350C6F43A4B26C431B1902D3012482
:104A500024043F191C041D0CA4187D4124196D4128
:104A6000009A91B2ACB26143170C7C432B0C5F43AC
:104A700092B25A43A41802D301221204BF1822048E
:104A8000230C52187B41019C6C431B19520ED90117
:104A90000A434401A01A81B2B2B2514303145A43EB
:104AA000360C734387B27743D617D21900277E415D
:104AB00036049B191704160C7F185E417316ED1807
:104AC000F301002680337541A90F06D16400690AFD
:104AD000E8055B0A184309D22FE00422944480338E
:104AE0007541A90AA8059B0A184326D340414941AC
:104AF0002404009A019B0D005543641B4343E41AB0
:104B000095B286B27543170C7E43030C5F4392B295
:104B10005A43B61802D301221204BF183204330CD0
:104B200052197B4152429C41002C02D40022013098
:104B300051414008CA071043490802B06246D707EE
:104B40009210084BD218084B9A4203D212058918CA
:104B5000C919F0BD0020002A01DC3900F0BD013385
:104B60001905F5E7FD030000FE070000624618CABC
:104B7000944600291ADAC01861415B463B415C4605
:104B8000B4405246FA40224344464D4662416B418E
:104B9000904699462B46B3403D41FC401C4352464B
:104BA0005B46A241AB4192469B467047C01AA14169
:104BB0004B463B414C46B4404246FA4022435446A1
:104BC0005D4662416B4192469B462B46B3403D4158
:104BD000FC401C4342464B46A241AB41904699469D
:104BE0007047002000217047002200B5203200F0FD
:104BF00004F8080000BD000000220B15F1D410B528
:104C0000944600F02FF81414013400DA0021CB1779
:104C1000134C20476244343A0CD40C2A07DA0400BF
:104C20009140904052422032D440214310BDD8439D
:104C3000D94310BD203207D40C4694405242203252
:104C40001141D040204310BD0800C917203203D4C1
:104C500052422032104110BD1800190010BD000052
:104C6000154C00100A0DCC0F531E1B05C91A520516
:104C700003D3C943404200D30131520D03D0531C2A
:104C8000DB0A07D0121B00206400611C890789120F
:104C9000803A1203014BD21A70470000FF03000054
:104CA00051434343C9188C46110C83B24B4310B493
:104CB000040C614392B280B2504362431C041B0C4B
:104CC000001910BC59411304120CC0185141614421
:104CD0007047000048404140484000239C46094B33
:104CE0005B68184700239C46064B1B681847002347
:104CF0009C46044BDB68184700239C46014B9B688D
:104D0000184700007405002007B54840414048405E
:104D100001E0C04607B54200120E03D0FF2A03D1BE
:104D2000420218D8C00DC0054A00120E03D0FF2A57
:104D300003D14A020FD8C90DC9050122414005D44B
:104D4000414001D5814207BD884207BD0143491852
:104D500001D0C043001807BD00B5FFF7D5FF804163
:104D600000BD0000C10FC90700D54042002817D080
:104D7000F44603B40B4B1B68984706BC81409E3831
:104D80004042803107D20B0607D04900490AC005CE
:104D90001043084360470130F8E7490A8902F5E704
:104DA0007047000070050020034BDB6FFC4618477E
:104DB0007CDFED4E001000007405002070B5132359
:104DC0001D782A48FFF7B8F80400012D11D0012DF5
:104DD00009DDA31E1B789B007F2B40DD8022210074
:104DE000234800F0A9F82348FFF79EF8224B1860EB
:104DF00070BD542201001E4800F09EF81F4B1A8817
:104E00001F4B9A421CD1A7239B011A881D4B9A4223
:104E100016D11D4B1A881D4B9A4211D11C4B1A8872
:104E200094239B019A420BD11A4B1A881A4B9A422F
:104E300006D11A4B1A681A4B9A4201D1152307E082
:104E40001848FDF7F9FB99001748094A88500133C3
:104E50001F2BF8D9144A064B1A62DA61B7E7134BD5
:104E6000134A42211348FDF7C9FBC04653460000D0
:104E7000740500204C33000070050020EE2900006E
:104E8000C40F0000C20D0000962B0000C0B500004A
:104E9000182B0000CC2A000010B50000FC2C0000EC
:104EA00051ED876408770010B94E0010D07D0010D6
:104EB000487E0010047E001007B56046002800D12F
:104EC00000BE01880A0A0230DF2AFAD1C9B282087C
:104ED00004D3028840880004104300E00068024ABE
:104EE0005050039007BD000074050020C30FDB077E
:104EF00041000A0E07D0FF2A08D00909054A89187F
:104F00001943400770471900002070470249C9182B
:104F1000FAE70000000000380000F07F014804219B
:104F2000014B184760020020493F0010014B1B68ED
:104F30001847000060020020014B5B681847000022
:104F400060020020F8B507000D001600437C002B1E
:104F500002D0002400200CE00368110028009847CC
:104F60002DE03B7C10E0022115483B689847601C0F
:104F70000134B44214DA002CF3DD2B19013B1B7809
:104F80000D3B5A425341DBB22A5D0A2AF0D1002B75
:104F9000EED1A042E7DA211A28183B689847E2E7E9
:104FA000B04203DA311A28183B689847002E06DD14
:104FB000AD19013D2B780D3B5A4253413B74F8BD6E
:104FC000C47E001070B505000368002B16D00C4B92
:104FD0001C6805E0290004C92000FFF7B3FFE4685E
:104FE000002C09D02368002BF9D0064B1B68002B3E
:104FF000F0D0A342F3D1EDE700232B6070BDC04693
:105000002C0400203004002070B505000C000B6853
:10501000802B05D021684B1C23606418257170BD5E
:105020000800FFF7CFFFF5E710B582B0D0231B06CD
:105030001C6801A9064800F053FA002806D1019B1C
:10504000A34203D0024800F053FA012002B010BD81
:105050007802002010B5024800F02AFA10BDC046C0
:1050600078020020F0B5C64600B582B006000D00FB
:105070001700FFF7D9FF80466B1C02D0184B1C6845
:1050800005E0300000F0E2F90500F7E7E468002CE5
:1050900018D02368002BF9D0124B1B68002B01D0CD
:1050A000A342F3D12A0031002000FFF74BFF002F6D
:1050B000ECD06B46D91D0A230B7001222000FFF7AC
:1050C00041FFE3E74346002B06D16B1E9D41E8B24A
:1050D00002B080BCB846F0BDFFF7BCFFF5E7C046A4
:1050E0002C0400203004002010B5064B1C6801E0A1
:1050F0009847E468002C03D06368002BF8D1F8E7E8
:1051000010BDC0462C04002070B5050000F09EF9CB
:105110000400012201002800FFF7A4FFFFF7E4FFCD
:10512000200070BD70B5A2B004000E00FFF77CFF38
:1051300005008422002101A8FFF7F8FE33002200B9
:1051400001A90848FEF7D8FE040001A8FFF73AFFBE
:10515000FFF7CAFF002D02D1200022B070BDFFF77B
:1051600079FFF9E7095000100FB400B583B004A926
:1051700001C90191FFF7D6FF03B008BC04B018477E
:10518000F0B5DE4657464E464546E0B583B00500CD
:1051900010009A460CAB1B7801930D9E0E9B98460F
:1051A0002B680022DA662B6859602B680132DA66B8
:1051B000D34600239946002426E02A79002A2BD0E2
:1051C000012229E00199002901D0002128E00121D4
:1051D00026E04046B04703000443E4B2002C0DD162
:1051E0002A68126F520709D42A6880215758546DD3
:1051F000621E9441E4B2002EEBD1EFE7002C18D1EF
:1052000001229446E1440098D94512DA5246511ED3
:105210004A46002AD1D0002292024945D2D000212C
:1052200049020A43411C00910078296802430A613F
:10523000DAE7002C07D0002B13D1002F15D0FB0785
:1052400017D43B0709D5019B2B71484603B0F0BC2E
:10525000BB46B246A946A046F0BD02235B42994632
:10526000F1E701235B429946EDE702235B42994651
:10527000E9E702235B429946E5E7F0B5DE4657468B
:105280004E464546E0B583B0050091469A460CABC4
:105290001B7801930D9E0E9F03680022DA66036857
:1052A000596003680132DA66D34600239846002429
:1052B0002AE02979002933D0012131E00198002822
:1052C00001D0002030E001202EE03800B04703007C
:1052D0000443E4B2002C0DD12A68926F002A09D150
:1052E0002A6880215158546D621E9441E4B2002E08
:1052F000EBD1EFE7002C1ED12A68126949460A70EB
:1053000001229446E044E144D84514DA5246541E42
:105310002A68516F2029FBD041460029C9D00021BD
:1053200089024445CAD00020400208438021490038
:1053300001431161D4E7002C04D0002B0CD00123D1
:105340005B429846019B2B71404603B0F0BCBB46C4
:10535000B246A946A046F0BD02235B429846F1E75B
:10536000F8B504000D000520FDF784FA0600680872
:1053700080192900FEF730FE050040004019052184
:10538000FEF72AFE2B1A22680021D16627683968A9
:1053900004224A4006211140802252013A43116002
:1053A0002268D061226813620F2B0BD91B09A0223F
:1053B00021688B5023689F3ADA6629003000FEF797
:1053C0000BFEF8BD0123F2E710B5104B98421BD03D
:1053D00010220F4B1A600F4B1A600F4B9B68140082
:1053E0009C43231EF9D104710268D46602686524C7
:1053F00014600268D36302689363883303220468ED
:10540000E250FFF7ADFF10BD0822E2E77002002076
:1054100000E0004000F0004000C0004030B585B022
:1054200008AC25780024029401940095FFF7A8FEAB
:1054300005B030BD30B585B008AC257800240294A5
:1054400001940095FFF719FF05B030BD10B5830733
:105450000AD00300032102E001330B4205D01A7881
:10546000002AF9D1181A10BD030019680C4A0D4C16
:105470008A188A4322420FD15968094A04338A188C
:105480008A43224208D15968054A04338A188A435C
:105490002242F1D000E001331A78002AFBD1E1E783
:1054A000FFFEFEFE80808080F8B5C0460000000050
:1054B00001B40248844601BC604700BF6D01002072
:1054C00001B40248844601BC604700BFB901002016
:1054D00001B40248844601BC604700BFB901002006
:1054E00001B40248844601BC604700BF250100208A
:1054F00001B40248844601BC604700BFC1000020DF
:1055000042616420646174610000000074656D7024
:105510003D20252E32660A00252E3266000000004E
:1055200054656D70657261747572653A20252E310F
:10553000660A000000AEDC008140A1C8A87FD550FB
:10554000D922DB35B0DA12A4A6AF000000AED580B8
:10555000A81FD300408D14A1C8DA02817FD9F1DBE6
:1055600040A4A6AF00AEA83FD30040A1C8DA128184
:10557000FFA4A6D5808D14AF2002000000AEA83F86
:10558000D30040A1C8DA1281FFAD30D9F1A4A6D56D
:10559000808D14AF20020000000000000000000019
:1055A00000000000000000000000000000000000FB
:1055B00000000000000000000000000000000000EB
:1055C00000000000000000000000000000000000DB
:1055D000000000000000000000000000FCFCFFFFD5
:1055E000FFFFFCFC000000000000000000003F3F47
:1055F0003F3F0000000000000000000000000F0F0F
:105600000F0F00000000000000000000000000007C
:10561000000000000000000000000F0F3F3F0000EE
:1056200000003F3F0F0F00000000000000000000DE
:10563000000000000000000000000000000000006A
:10564000000000000000000000000000000000005A
:105650000000000000000000C0C0FCFCFCFCC0C05A
:10566000FCFCFCFCC0C00000C0C0FFFFFFFFC0C0CE
:10567000FFFFFFFFC0C0000000000F0F0F0F000072
:105680000F0F0F0F00000000000000000000F0F0FE
:10569000F0F0000000000000FCFCFFFF0303030328
:1056A00003030F0F3C3C0000F0F0C3C303030303EC
:1056B0000303FFFFFCFC00000000030303033F3F64
:1056C0003F3F030300000000000000000000000056
:1056D0000000000000000000F0F0F0F0000000000A
:1056E0000000C0C0F0F000000000C0C0F0F03C3C82
:1056F0000F0F0303000000000F0F03030000000062
:1057000000000F0F0F0F000000000000000000005D
:10571000000000000000000000003C3CFFFFC3C38D
:10572000FFFF3C3C00000000FCFCFFFF03030F0FE9
:10573000FCFCFFFF0303000003030F0F0C0C0C0C19
:1057400003030F0F0C0C000000000000C0C0C0C01D
:105750000000000000000000000030303F3F0F0F4D
:105760000000000000000000000000000000000039
:105770000000000000000000000000000000000029
:105780000000000000000000000000000000000019
:10579000000000000000000000000000F0F0FCFC31
:1057A0000F0F03030000000000000000FFFFFFFFD9
:1057B00000000000000000000000000000000303E3
:1057C0000F0F0C0C000000000000000000000000A3
:1057D00000000000000000000000000003030F0FA5
:1057E000FCFCF0F0000000000000000000000000E1
:1057F000FFFFFFFF00000000000000000C0C0F0F77
:105800000303000000000000000000000000000092
:1058100000000000000000000000C0C0C0C0000088
:105820000000C0C0C0C000000C0CCCCCFFFF3F3F4C
:105830003F3FFFFFCCCC0C0C00000000000000003C
:105840000000000000000000000000000000000058
:105850000000000000000000000000000000C0C0C8
:10586000C0C000000000000000000C0C0C0CFFFF8A
:10587000FFFF0C0C0C0C00000000000000000000FA
:105880000000000000000000000000000000000018
:105890000000000000000000000000000000000008
:1058A0000000000000000000000000000000C0C078
:1058B000C0C00000000000000000000030303F3F8A
:1058C0000F0F0000000000000000000000000000BA
:1058D00000000000000000000000000000000000C8
:1058E00000000000000000000C0C0C0C0C0C0C0C58
:1058F0000C0C0C0C0C0C0000000000000000000060
:105900000000000000000000000000000000000097
:105910000000000000000000000000000000000087
:105920000000000000000000000000000000000077
:1059300000000000000000000000000000000F0F49
:105940000F0F000000000000000000000000000039
:105950000000000000000000000000000000000047
:105960000000C0C0F0F000000000C0C0F0F03C3CFF
:105970000F0F0303000000000F0F030300000000DF
:105980000000000000000000000000000000000017
:105990000000000000000000FCFCFFFF0303030305
:1059A000C3C3FFFFFCFC0000FFFFFFFF30300F0F01
:1059B0000000FFFFFFFF000003030F0F0C0C0C0C97
:1059C0000C0C0F0F0303000000000000000000009B
:1059D0000000000000000000000030303C3CFFFFF1
:1059E000FFFF000000000000000000000000FFFFBB
:1059F000FFFF00000000000000000C0C0C0C0F0F5B
:105A00000F0F0C0C0C0C0000000000000000000048
:105A100000000000000000000C0C0F0F0303030344
:105A2000C3C3FFFF3C3C0000C0C0F0F03C3C0F0F84
:105A300003030000000000000F0F0F0F0C0C0C0CF4
:105A40000C0C0F0F0F0F0000000000000000000002
:105A500000000000000000000C0C0F0F0303030304
:105A60000303FFFFFCFC000000000000030303032E
:105A70000303FFFFFCFC000003030F0F0C0C0C0CD6
:105A80000C0C0F0F030300000000000000000000DA
:105A900000000000000000000000C0C0F0F03C3C2E
:105AA000FFFFFFFF000000000F0F0F0F0C0C0C0C8E
:105AB000FFFFFFFF0C0C00000000000000000C0CBA
:105AC0000F0F0F0F0C0C0000000000000000000082
:105AD0000000000000000000FFFFFFFF03030303BE
